{
  "_format": "hh-sol-artifact-1",
  "contractName": "CountryToken",
  "sourceName": "contracts/CountryToken.sol",
  "abi": [
    {
      "inputs": [
        {
          "internalType": "uint256",
          "name": "cap",
          "type": "uint256"
        }
      ],
      "stateMutability": "nonpayable",
      "type": "constructor"
    },
    {
      "anonymous": false,
      "inputs": [
        {
          "indexed": true,
          "internalType": "address",
          "name": "owner",
          "type": "address"
        },
        {
          "indexed": true,
          "internalType": "address",
          "name": "spender",
          "type": "address"
        },
        {
          "indexed": false,
          "internalType": "uint256",
          "name": "value",
          "type": "uint256"
        }
      ],
      "name": "Approval",
      "type": "event"
    },
    {
      "anonymous": false,
      "inputs": [
        {
          "indexed": true,
          "internalType": "address",
          "name": "from",
          "type": "address"
        },
        {
          "indexed": true,
          "internalType": "address",
          "name": "to",
          "type": "address"
        },
        {
          "indexed": false,
          "internalType": "uint256",
          "name": "value",
          "type": "uint256"
        }
      ],
      "name": "Transfer",
      "type": "event"
    },
    {
      "inputs": [
        {
          "internalType": "address",
          "name": "owner",
          "type": "address"
        },
        {
          "internalType": "address",
          "name": "spender",
          "type": "address"
        }
      ],
      "name": "allowance",
      "outputs": [
        {
          "internalType": "uint256",
          "name": "",
          "type": "uint256"
        }
      ],
      "stateMutability": "view",
      "type": "function"
    },
    {
      "inputs": [
        {
          "internalType": "address",
          "name": "spender",
          "type": "address"
        },
        {
          "internalType": "uint256",
          "name": "amount",
          "type": "uint256"
        }
      ],
      "name": "approve",
      "outputs": [
        {
          "internalType": "bool",
          "name": "",
          "type": "bool"
        }
      ],
      "stateMutability": "nonpayable",
      "type": "function"
    },
    {
      "inputs": [
        {
          "internalType": "address",
          "name": "account",
          "type": "address"
        }
      ],
      "name": "balanceOf",
      "outputs": [
        {
          "internalType": "uint256",
          "name": "",
          "type": "uint256"
        }
      ],
      "stateMutability": "view",
      "type": "function"
    },
    {
      "inputs": [],
      "name": "cap",
      "outputs": [
        {
          "internalType": "uint256",
          "name": "",
          "type": "uint256"
        }
      ],
      "stateMutability": "view",
      "type": "function"
    },
    {
      "inputs": [],
      "name": "decimals",
      "outputs": [
        {
          "internalType": "uint8",
          "name": "",
          "type": "uint8"
        }
      ],
      "stateMutability": "view",
      "type": "function"
    },
    {
      "inputs": [
        {
          "internalType": "address",
          "name": "spender",
          "type": "address"
        },
        {
          "internalType": "uint256",
          "name": "subtractedValue",
          "type": "uint256"
        }
      ],
      "name": "decreaseAllowance",
      "outputs": [
        {
          "internalType": "bool",
          "name": "",
          "type": "bool"
        }
      ],
      "stateMutability": "nonpayable",
      "type": "function"
    },
    {
      "inputs": [],
      "name": "destroy",
      "outputs": [],
      "stateMutability": "nonpayable",
      "type": "function"
    },
    {
      "inputs": [],
      "name": "getTokenDetails",
      "outputs": [
        {
          "internalType": "string",
          "name": "",
          "type": "string"
        },
        {
          "internalType": "string",
          "name": "",
          "type": "string"
        },
        {
          "internalType": "uint256",
          "name": "",
          "type": "uint256"
        },
        {
          "internalType": "uint256",
          "name": "",
          "type": "uint256"
        },
        {
          "internalType": "uint256",
          "name": "",
          "type": "uint256"
        }
      ],
      "stateMutability": "view",
      "type": "function"
    },
    {
      "inputs": [
        {
          "internalType": "address",
          "name": "spender",
          "type": "address"
        },
        {
          "internalType": "uint256",
          "name": "addedValue",
          "type": "uint256"
        }
      ],
      "name": "increaseAllowance",
      "outputs": [
        {
          "internalType": "bool",
          "name": "",
          "type": "bool"
        }
      ],
      "stateMutability": "nonpayable",
      "type": "function"
    },
    {
      "inputs": [],
      "name": "name",
      "outputs": [
        {
          "internalType": "string",
          "name": "",
          "type": "string"
        }
      ],
      "stateMutability": "view",
      "type": "function"
    },
    {
      "inputs": [],
      "name": "owner",
      "outputs": [
        {
          "internalType": "address payable",
          "name": "",
          "type": "address"
        }
      ],
      "stateMutability": "view",
      "type": "function"
    },
    {
      "inputs": [
        {
          "internalType": "uint256",
          "name": "value",
          "type": "uint256"
        }
      ],
      "name": "setTokenValue",
      "outputs": [],
      "stateMutability": "nonpayable",
      "type": "function"
    },
    {
      "inputs": [],
      "name": "symbol",
      "outputs": [
        {
          "internalType": "string",
          "name": "",
          "type": "string"
        }
      ],
      "stateMutability": "view",
      "type": "function"
    },
    {
      "inputs": [],
      "name": "tokenValue",
      "outputs": [
        {
          "internalType": "uint256",
          "name": "",
          "type": "uint256"
        }
      ],
      "stateMutability": "view",
      "type": "function"
    },
    {
      "inputs": [],
      "name": "totalSupply",
      "outputs": [
        {
          "internalType": "uint256",
          "name": "",
          "type": "uint256"
        }
      ],
      "stateMutability": "view",
      "type": "function"
    },
    {
      "inputs": [
        {
          "internalType": "address",
          "name": "to",
          "type": "address"
        },
        {
          "internalType": "uint256",
          "name": "amount",
          "type": "uint256"
        }
      ],
      "name": "transfer",
      "outputs": [
        {
          "internalType": "bool",
          "name": "",
          "type": "bool"
        }
      ],
      "stateMutability": "nonpayable",
      "type": "function"
    },
    {
      "inputs": [
        {
          "internalType": "address",
          "name": "from",
          "type": "address"
        },
        {
          "internalType": "address",
          "name": "to",
          "type": "address"
        },
        {
          "internalType": "uint256",
          "name": "amount",
          "type": "uint256"
        }
      ],
      "name": "transferFrom",
      "outputs": [
        {
          "internalType": "bool",
          "name": "",
          "type": "bool"
        }
      ],
      "stateMutability": "nonpayable",
      "type": "function"
    }
  ],
  "bytecode": "0x60a06040523480156200001157600080fd5b50604051620024413803806200244183398181016040528101906200003791906200045a565b62000047620001f560201b60201c565b600a6200005591906200061c565b816200006291906200066d565b6040518060400160405280600c81526020017f436f756e747279546f6b656e00000000000000000000000000000000000000008152506040518060400160405280600381526020017f434f5400000000000000000000000000000000000000000000000000000000008152508160039081620000df919062000928565b508060049081620000f1919062000928565b505050600081116200013a576040517f08c379a0000000000000000000000000000000000000000000000000000000008152600401620001319062000a70565b60405180910390fd5b80608081815250505033600560006101000a81548173ffffffffffffffffffffffffffffffffffffffff021916908373ffffffffffffffffffffffffffffffffffffffff160217905550620001e6600560009054906101000a900473ffffffffffffffffffffffffffffffffffffffff16620001bb620001f560201b60201c565b600a620001c991906200061c565b6305f5e100620001da91906200066d565b620001fe60201b60201c565b60016006819055505062000bdf565b60006012905090565b6200020e6200028f60201b60201c565b81620002246200029960201b6200042f1760201c565b62000230919062000a92565b111562000274576040517f08c379a00000000000000000000000000000000000000000000000000000000081526004016200026b9062000b1d565b60405180910390fd5b6200028b8282620002a360201b620008981760201c565b5050565b6000608051905090565b6000600254905090565b600073ffffffffffffffffffffffffffffffffffffffff168273ffffffffffffffffffffffffffffffffffffffff160362000315576040517f08c379a00000000000000000000000000000000000000000000000000000000081526004016200030c9062000b8f565b60405180910390fd5b62000329600083836200041060201b60201c565b80600260008282546200033d919062000a92565b92505081905550806000808473ffffffffffffffffffffffffffffffffffffffff1673ffffffffffffffffffffffffffffffffffffffff168152602001908152602001600020600082825401925050819055508173ffffffffffffffffffffffffffffffffffffffff16600073ffffffffffffffffffffffffffffffffffffffff167fddf252ad1be2c89b69c2b068fc378daa952ba7f163c4a11628f55a4df523b3ef83604051620003f0919062000bc2565b60405180910390a36200040c600083836200041560201b60201c565b5050565b505050565b505050565b600080fd5b6000819050919050565b62000434816200041f565b81146200044057600080fd5b50565b600081519050620004548162000429565b92915050565b6000602082840312156200047357620004726200041a565b5b6000620004838482850162000443565b91505092915050565b7f4e487b7100000000000000000000000000000000000000000000000000000000600052601160045260246000fd5b60008160011c9050919050565b6000808291508390505b60018511156200051a57808604811115620004f257620004f16200048c565b5b6001851615620005025780820291505b80810290506200051285620004bb565b9450620004d2565b94509492505050565b60008262000535576001905062000608565b8162000545576000905062000608565b81600181146200055e576002811462000569576200059f565b600191505062000608565b60ff8411156200057e576200057d6200048c565b5b8360020a9150848211156200059857620005976200048c565b5b5062000608565b5060208310610133831016604e8410600b8410161715620005d95782820a905083811115620005d357620005d26200048c565b5b62000608565b620005e88484846001620004c8565b925090508184048111156200060257620006016200048c565b5b81810290505b9392505050565b600060ff82169050919050565b600062000629826200041f565b915062000636836200060f565b9250620006657fffffffffffffffffffffffffffffffffffffffffffffffffffffffffffffffff848462000523565b905092915050565b60006200067a826200041f565b915062000687836200041f565b925082820262000697816200041f565b91508282048414831517620006b157620006b06200048c565b5b5092915050565b600081519050919050565b7f4e487b7100000000000000000000000000000000000000000000000000000000600052604160045260246000fd5b7f4e487b7100000000000000000000000000000000000000000000000000000000600052602260045260246000fd5b600060028204905060018216806200073a57607f821691505b60208210810362000750576200074f620006f2565b5b50919050565b60008190508160005260206000209050919050565b60006020601f8301049050919050565b600082821b905092915050565b600060088302620007ba7fffffffffffffffffffffffffffffffffffffffffffffffffffffffffffffffff826200077b565b620007c686836200077b565b95508019841693508086168417925050509392505050565b6000819050919050565b60006200080962000803620007fd846200041f565b620007de565b6200041f565b9050919050565b6000819050919050565b6200082583620007e8565b6200083d620008348262000810565b84845462000788565b825550505050565b600090565b6200085462000845565b620008618184846200081a565b505050565b5b8181101562000889576200087d6000826200084a565b60018101905062000867565b5050565b601f821115620008d857620008a28162000756565b620008ad846200076b565b81016020851015620008bd578190505b620008d5620008cc856200076b565b83018262000866565b50505b505050565b600082821c905092915050565b6000620008fd60001984600802620008dd565b1980831691505092915050565b6000620009188383620008ea565b9150826002028217905092915050565b6200093382620006b8565b67ffffffffffffffff8111156200094f576200094e620006c3565b5b6200095b825462000721565b620009688282856200088d565b600060209050601f831160018114620009a057600084156200098b578287015190505b6200099785826200090a565b86555062000a07565b601f198416620009b08662000756565b60005b82811015620009da57848901518255600182019150602085019450602081019050620009b3565b86831015620009fa5784890151620009f6601f891682620008ea565b8355505b6001600288020188555050505b505050505050565b600082825260208201905092915050565b7f45524332304361707065643a2063617020697320300000000000000000000000600082015250565b600062000a5860158362000a0f565b915062000a658262000a20565b602082019050919050565b6000602082019050818103600083015262000a8b8162000a49565b9050919050565b600062000a9f826200041f565b915062000aac836200041f565b925082820190508082111562000ac75762000ac66200048c565b5b92915050565b7f45524332304361707065643a2063617020657863656564656400000000000000600082015250565b600062000b0560198362000a0f565b915062000b128262000acd565b602082019050919050565b6000602082019050818103600083015262000b388162000af6565b9050919050565b7f45524332303a206d696e7420746f20746865207a65726f206164647265737300600082015250565b600062000b77601f8362000a0f565b915062000b848262000b3f565b602082019050919050565b6000602082019050818103600083015262000baa8162000b68565b9050919050565b62000bbc816200041f565b82525050565b600060208201905062000bd9600083018462000bb1565b92915050565b60805161184662000bfb600039600061047b01526118466000f3fe608060405234801561001057600080fd5b506004361061010b5760003560e01c806370a08231116100a2578063a2bf693911610071578063a2bf6939146102ac578063a457c2d7146102c8578063a9059cbb146102f8578063dd62ed3e14610328578063ff332ab7146103585761010b565b806370a082311461023657806383197ef0146102665780638da5cb5b1461027057806395d89b411461028e5761010b565b806323b872dd116100de57806323b872dd1461019a578063313ce567146101ca578063355274ea146101e857806339509351146102065761010b565b806306fdde0314610110578063095ea7b31461012e57806318160ddd1461015e5780631ec7e3451461017c575b600080fd5b61011861037a565b6040516101259190610f5b565b60405180910390f35b61014860048036038101906101439190611016565b61040c565b6040516101559190611071565b60405180910390f35b61016661042f565b604051610173919061109b565b60405180910390f35b610184610439565b604051610191919061109b565b60405180910390f35b6101b460048036038101906101af91906110b6565b61043f565b6040516101c19190611071565b60405180910390f35b6101d261046e565b6040516101df9190611125565b60405180910390f35b6101f0610477565b6040516101fd919061109b565b60405180910390f35b610220600480360381019061021b9190611016565b61049f565b60405161022d9190611071565b60405180910390f35b610250600480360381019061024b9190611140565b6104d6565b60405161025d919061109b565b60405180910390f35b61026e61051e565b005b6102786105e9565b604051610285919061118e565b60405180910390f35b61029661060f565b6040516102a39190610f5b565b60405180910390f35b6102c660048036038101906102c191906111a9565b6106a1565b005b6102e260048036038101906102dd9190611016565b61073b565b6040516102ef9190611071565b60405180910390f35b610312600480360381019061030d9190611016565b6107b2565b60405161031f9190611071565b60405180910390f35b610342600480360381019061033d91906111d6565b6107d5565b60405161034f919061109b565b60405180910390f35b61036061085c565b604051610371959493929190611216565b60405180910390f35b606060038054610389906112a6565b80601f01602080910402602001604051908101604052809291908181526020018280546103b5906112a6565b80156104025780601f106103d757610100808354040283529160200191610402565b820191906000526020600020905b8154815290600101906020018083116103e557829003601f168201915b5050505050905090565b6000806104176109ee565b90506104248185856109f6565b600191505092915050565b6000600254905090565b60065481565b60008061044a6109ee565b9050610457858285610bbf565b610462858585610c4b565b60019150509392505050565b60006012905090565b60007f0000000000000000000000000000000000000000000000000000000000000000905090565b6000806104aa6109ee565b90506104cb8185856104bc85896107d5565b6104c69190611306565b6109f6565b600191505092915050565b60008060008373ffffffffffffffffffffffffffffffffffffffff1673ffffffffffffffffffffffffffffffffffffffff168152602001908152602001600020549050919050565b600560009054906101000a900473ffffffffffffffffffffffffffffffffffffffff1673ffffffffffffffffffffffffffffffffffffffff163373ffffffffffffffffffffffffffffffffffffffff16146105ae576040517f08c379a00000000000000000000000000000000000000000000000000000000081526004016105a5906113ac565b60405180910390fd5b600560009054906101000a900473ffffffffffffffffffffffffffffffffffffffff1673ffffffffffffffffffffffffffffffffffffffff16ff5b600560009054906101000a900473ffffffffffffffffffffffffffffffffffffffff1681565b60606004805461061e906112a6565b80601f016020809104026020016040519081016040528092919081815260200182805461064a906112a6565b80156106975780601f1061066c57610100808354040283529160200191610697565b820191906000526020600020905b81548152906001019060200180831161067a57829003601f168201915b5050505050905090565b600560009054906101000a900473ffffffffffffffffffffffffffffffffffffffff1673ffffffffffffffffffffffffffffffffffffffff163373ffffffffffffffffffffffffffffffffffffffff1614610731576040517f08c379a0000000000000000000000000000000000000000000000000000000008152600401610728906113ac565b60405180910390fd5b8060068190555050565b6000806107466109ee565b9050600061075482866107d5565b905083811015610799576040517f08c379a00000000000000000000000000000000000000000000000000000000081526004016107909061143e565b60405180910390fd5b6107a682868684036109f6565b60019250505092915050565b6000806107bd6109ee565b90506107ca818585610c4b565b600191505092915050565b6000600160008473ffffffffffffffffffffffffffffffffffffffff1673ffffffffffffffffffffffffffffffffffffffff16815260200190815260200160002060008373ffffffffffffffffffffffffffffffffffffffff1673ffffffffffffffffffffffffffffffffffffffff16815260200190815260200160002054905092915050565b606080600080600061086c61037a565b61087461060f565b61087c61042f565b610884610477565b600654945094509450945094509091929394565b600073ffffffffffffffffffffffffffffffffffffffff168273ffffffffffffffffffffffffffffffffffffffff1603610907576040517f08c379a00000000000000000000000000000000000000000000000000000000081526004016108fe906114aa565b60405180910390fd5b61091360008383610ec1565b80600260008282546109259190611306565b92505081905550806000808473ffffffffffffffffffffffffffffffffffffffff1673ffffffffffffffffffffffffffffffffffffffff168152602001908152602001600020600082825401925050819055508173ffffffffffffffffffffffffffffffffffffffff16600073ffffffffffffffffffffffffffffffffffffffff167fddf252ad1be2c89b69c2b068fc378daa952ba7f163c4a11628f55a4df523b3ef836040516109d6919061109b565b60405180910390a36109ea60008383610ec6565b5050565b600033905090565b600073ffffffffffffffffffffffffffffffffffffffff168373ffffffffffffffffffffffffffffffffffffffff1603610a65576040517f08c379a0000000000000000000000000000000000000000000000000000000008152600401610a5c9061153c565b60405180910390fd5b600073ffffffffffffffffffffffffffffffffffffffff168273ffffffffffffffffffffffffffffffffffffffff1603610ad4576040517f08c379a0000000000000000000000000000000000000000000000000000000008152600401610acb906115ce565b60405180910390fd5b80600160008573ffffffffffffffffffffffffffffffffffffffff1673ffffffffffffffffffffffffffffffffffffffff16815260200190815260200160002060008473ffffffffffffffffffffffffffffffffffffffff1673ffffffffffffffffffffffffffffffffffffffff168152602001908152602001600020819055508173ffffffffffffffffffffffffffffffffffffffff168373ffffffffffffffffffffffffffffffffffffffff167f8c5be1e5ebec7d5bd14f71427d1e84f3dd0314c0f7b2291e5b200ac8c7c3b92583604051610bb2919061109b565b60405180910390a3505050565b6000610bcb84846107d5565b90507fffffffffffffffffffffffffffffffffffffffffffffffffffffffffffffffff8114610c455781811015610c37576040517f08c379a0000000000000000000000000000000000000000000000000000000008152600401610c2e9061163a565b60405180910390fd5b610c4484848484036109f6565b5b50505050565b600073ffffffffffffffffffffffffffffffffffffffff168373ffffffffffffffffffffffffffffffffffffffff1603610cba576040517f08c379a0000000000000000000000000000000000000000000000000000000008152600401610cb1906116cc565b60405180910390fd5b600073ffffffffffffffffffffffffffffffffffffffff168273ffffffffffffffffffffffffffffffffffffffff1603610d29576040517f08c379a0000000000000000000000000000000000000000000000000000000008152600401610d209061175e565b60405180910390fd5b610d34838383610ec1565b60008060008573ffffffffffffffffffffffffffffffffffffffff1673ffffffffffffffffffffffffffffffffffffffff16815260200190815260200160002054905081811015610dba576040517f08c379a0000000000000000000000000000000000000000000000000000000008152600401610db1906117f0565b60405180910390fd5b8181036000808673ffffffffffffffffffffffffffffffffffffffff1673ffffffffffffffffffffffffffffffffffffffff16815260200190815260200160002081905550816000808573ffffffffffffffffffffffffffffffffffffffff1673ffffffffffffffffffffffffffffffffffffffff168152602001908152602001600020600082825401925050819055508273ffffffffffffffffffffffffffffffffffffffff168473ffffffffffffffffffffffffffffffffffffffff167fddf252ad1be2c89b69c2b068fc378daa952ba7f163c4a11628f55a4df523b3ef84604051610ea8919061109b565b60405180910390a3610ebb848484610ec6565b50505050565b505050565b505050565b600081519050919050565b600082825260208201905092915050565b60005b83811015610f05578082015181840152602081019050610eea565b60008484015250505050565b6000601f19601f8301169050919050565b6000610f2d82610ecb565b610f378185610ed6565b9350610f47818560208601610ee7565b610f5081610f11565b840191505092915050565b60006020820190508181036000830152610f758184610f22565b905092915050565b600080fd5b600073ffffffffffffffffffffffffffffffffffffffff82169050919050565b6000610fad82610f82565b9050919050565b610fbd81610fa2565b8114610fc857600080fd5b50565b600081359050610fda81610fb4565b92915050565b6000819050919050565b610ff381610fe0565b8114610ffe57600080fd5b50565b60008135905061101081610fea565b92915050565b6000806040838503121561102d5761102c610f7d565b5b600061103b85828601610fcb565b925050602061104c85828601611001565b9150509250929050565b60008115159050919050565b61106b81611056565b82525050565b60006020820190506110866000830184611062565b92915050565b61109581610fe0565b82525050565b60006020820190506110b0600083018461108c565b92915050565b6000806000606084860312156110cf576110ce610f7d565b5b60006110dd86828701610fcb565b93505060206110ee86828701610fcb565b92505060406110ff86828701611001565b9150509250925092565b600060ff82169050919050565b61111f81611109565b82525050565b600060208201905061113a6000830184611116565b92915050565b60006020828403121561115657611155610f7d565b5b600061116484828501610fcb565b91505092915050565b600061117882610f82565b9050919050565b6111888161116d565b82525050565b60006020820190506111a3600083018461117f565b92915050565b6000602082840312156111bf576111be610f7d565b5b60006111cd84828501611001565b91505092915050565b600080604083850312156111ed576111ec610f7d565b5b60006111fb85828601610fcb565b925050602061120c85828601610fcb565b9150509250929050565b600060a08201905081810360008301526112308188610f22565b905081810360208301526112448187610f22565b9050611253604083018661108c565b611260606083018561108c565b61126d608083018461108c565b9695505050505050565b7f4e487b7100000000000000000000000000000000000000000000000000000000600052602260045260246000fd5b600060028204905060018216806112be57607f821691505b6020821081036112d1576112d0611277565b5b50919050565b7f4e487b7100000000000000000000000000000000000000000000000000000000600052601160045260246000fd5b600061131182610fe0565b915061131c83610fe0565b9250828201905080821115611334576113336112d7565b5b92915050565b7f4f6e6c7920746865206f776e65722063616e2063616c6c20746869732066756e60008201527f6374696f6e000000000000000000000000000000000000000000000000000000602082015250565b6000611396602583610ed6565b91506113a18261133a565b604082019050919050565b600060208201905081810360008301526113c581611389565b9050919050565b7f45524332303a2064656372656173656420616c6c6f77616e63652062656c6f7760008201527f207a65726f000000000000000000000000000000000000000000000000000000602082015250565b6000611428602583610ed6565b9150611433826113cc565b604082019050919050565b600060208201905081810360008301526114578161141b565b9050919050565b7f45524332303a206d696e7420746f20746865207a65726f206164647265737300600082015250565b6000611494601f83610ed6565b915061149f8261145e565b602082019050919050565b600060208201905081810360008301526114c381611487565b9050919050565b7f45524332303a20617070726f76652066726f6d20746865207a65726f2061646460008201527f7265737300000000000000000000000000000000000000000000000000000000602082015250565b6000611526602483610ed6565b9150611531826114ca565b604082019050919050565b6000602082019050818103600083015261155581611519565b9050919050565b7f45524332303a20617070726f766520746f20746865207a65726f20616464726560008201527f7373000000000000000000000000000000000000000000000000000000000000602082015250565b60006115b8602283610ed6565b91506115c38261155c565b604082019050919050565b600060208201905081810360008301526115e7816115ab565b9050919050565b7f45524332303a20696e73756666696369656e7420616c6c6f77616e6365000000600082015250565b6000611624601d83610ed6565b915061162f826115ee565b602082019050919050565b6000602082019050818103600083015261165381611617565b9050919050565b7f45524332303a207472616e736665722066726f6d20746865207a65726f20616460008201527f6472657373000000000000000000000000000000000000000000000000000000602082015250565b60006116b6602583610ed6565b91506116c18261165a565b604082019050919050565b600060208201905081810360008301526116e5816116a9565b9050919050565b7f45524332303a207472616e7366657220746f20746865207a65726f206164647260008201527f6573730000000000000000000000000000000000000000000000000000000000602082015250565b6000611748602383610ed6565b9150611753826116ec565b604082019050919050565b600060208201905081810360008301526117778161173b565b9050919050565b7f45524332303a207472616e7366657220616d6f756e742065786365656473206260008201527f616c616e63650000000000000000000000000000000000000000000000000000602082015250565b60006117da602683610ed6565b91506117e58261177e565b604082019050919050565b60006020820190508181036000830152611809816117cd565b905091905056fea2646970667358221220843a7a387a27f76e497499eecd42d7dc933e2b957639195a551d0c37e10f359764736f6c63430008110033",
  "linkReferences": {},
  "deployedLinkReferences": {}
}